:020000040800F2
:10000000002800205D0B0008010B0008070B00080A
:100010000D0B0008130B0008190B0008000000006E
:100020000000000000000000000000001F0B00089E
:100030002B0B000800000000370B0008430B0008E2
:10004000A50B0008A50B0008A50B0008A50B0008D0
:10005000A50B0008A50B0008A50B0008A50B0008C0
:10006000A50B0008A50B0008A50B0008A50B0008B0
:10007000A50B0008A50B0008A50B0008A50B0008A0
:10008000A50B0008A50B0008A50B0008A50B000890
:10009000A50B0008A50B0008A50B0008A50B000880
:1000A000A50B0008A50B0008A50B0008A50B000870
:1000B000A50B0008A50B000800000000A50B000818
:1000C000A50B00080000000000000000A50B0008C0
:1000D00000000000A50B0008A50B000800000000B0
:1000E000A50B0008A50B0008A50B000800000000E8
:1000F0000000000000000000000000000000000000
:0C01000000000000000000005FF808F1A3
:10010C0010B5054C237833B9044B13B10448AFF345
:10011C0000800123237010BD0C00002000000000A3
:10012C00CC19000808B5034B1BB103490348AFF3C6
:10013C00008008BD0000000010000020CC19000851
:10014C0080B586B000AF00F029FD00F019FC00F07E
:10015C0053FC05237B6100233B610023FB600023E0
:10016C00BB6000237B6003233B60012220215D48A0
:10017C0000F0FAFF012240215A4800F0F5FF01225D
:10018C008021584800F0F0FF01224FF4807155484F
:10019C0000F0EAFF01224FF40071524800F0E4FF36
:1001AC0001224FF480614F4800F0DEFF7B69002B89
:1001BC0049DD01224FF480714A4800F0D5FF01223D
:1001CC004021484800F0D0FF00222021454800F093
:1001DC00CBFF786900F088F87B69013B7B613B6859
:1001EC00002B0AD17B68002B07D102237B600122F4
:1001FC004FF480613B4800F0B7FF7B68002B0BDDB0
:10020C00786800F0F7F97B68013B7B6000224FF4C3
:10021C000071344800F0A8FF3B68002B0BDD3868F8
:10022C0000F0E8F93B68013B3B6000224FF4806131
:10023C002C4800F099FF7B69002B4ED10323FB6007
:10024C000523BB6049E0BB68002B46DD0122202161
:10025C00244800F089FF01224FF40071214800F07E
:10026C0083FF00224FF480711E4800F07DFFB868B8
:10027C0000F0C0F9BB68013BBB60FB68002B09D1E7
:10028C003B69002B06D102233B61012280211548DA
:10029C0000F06AFF3B69002B0ADD386900F024F896
:1002AC003B69013B3B61002240210E4800F05CFFA2
:1002BC00FB68002B0ADDF86800F016F8FB68013BC0
:1002CC00FB6000228021074800F04EFFBB68002B2A
:1002DC0003D103233B6005237B614FF47A7000F05C
:1002EC00BFFC63E70008014080B582B000AF7860C6
:1002FC007B68002B22D100220121BD4800F034FF85
:10030C0000220221BA4800F02FFF00220421B84835
:10031C0000F02AFF00220821B54800F025FF00223A
:10032C001021B34800F020FF00222021B04800F03B
:10033C001BFF01224021AE4800F016FF7B68012B09
:10034C0022D101220121AA4800F00EFF0022022135
:10035C00A74800F009FF00220421A54800F004FF83
:10036C0001220821A24800F0FFFE01221021A04822
:10037C0000F0FAFE012220219D4800F0F5FE01223A
:10038C0040219B4800F0F0FE7B68022B22D100221A
:10039C000121974800F0E8FE00220221944800F069
:1003AC00E3FE01220421924800F0DEFE0022082127
:1003BC008F4800F0D9FE002210218D4800F0D4FEA9
:1003CC00012220218A4800F0CFFE002240218848DB
:1003DC0000F0CAFE7B68032B22D100220121844845
:1003EC0000F0C2FE00220221814800F0BDFE002276
:1003FC0004217F4800F0B8FE002208217C4800F060
:10040C00B3FE012210217A4800F0AEFE0122202119
:10041C00774800F0A9FE00224021754800F0A4FEA8
:10042C007B68042B22D101220121714800F09CFE33
:10043C00002202216E4800F097FE002204216C4835
:10044C0000F092FE01220821694800F08DFE012285
:10045C001021674800F088FE00222021644800F03B
:10046C0083FE00224021624800F07EFE7B68052B53
:10047C0022D1002201215E4800F076FE01220221E9
:10048C005B4800F071FE00220421594800F06CFE1C
:10049C0000220821564800F067FE01221021544822
:1004AC0000F062FE00222021514800F05DFE002287
:1004BC0040214F4800F058FE7B68062B22D10022C9
:1004CC0001214B4800F050FE01220221484800F067
:1004DC004BFE00220421464800F046FE0022082173
:1004EC00434800F041FE00221021414800F03CFE40
:1004FC00002220213E4800F037FE002240213C48DB
:10050C0000F032FE7B68072B22D1002201213848F3
:10051C0000F02AFE00220221354800F025FE0022C0
:10052C000421334800F020FE01220821304800F05D
:10053C001BFE012210212E4800F016FE0122202164
:10054C002B4800F011FE01224021294800F00CFE3E
:10055C007B68082B22D100220121254800F004FEE3
:10056C0000220221224800F0FFFD00220421204835
:10057C0000F0FAFD002208211D4800F0F5FD0022D4
:10058C0010211B4800F0F0FD00222021184800F03B
:10059C00EBFD00224021164800F0E6FD7B68092B9C
:1005AC0022D100220121124800F0DEFD002202219E
:1005BC000F4800F0D9FD002204210D4800F0D4FDB5
:1005CC00002208210A4800F0CFFD01221021084822
:1005DC0000F0CAFD00222021054800F0C5FD0022D4
:1005EC004021034800F0C0FD00BF0837BD4680BD68
:1005FC00000C014080B582B000AF78607B68002BA6
:10060C0028D100228021CF4800F0AEFD00224FF40B
:10061C008071CC4800F0A8FD00224FF40071C9484D
:10062C0000F0A2FD00224FF48061C64800F09CFD52
:10063C0000224FF40061C34800F096FD00224FF4F5
:10064C008051C04800F090FD01224FF40051BD488C
:10065C0000F08AFD7B68012B28D101228021B9484A
:10066C0000F082FD00224FF48071B64800F07CFD52
:10067C0000224FF40071B34800F076FD01224FF4D4
:10068C008061B04800F070FD01224FF40061AD486C
:10069C0000F06AFD01224FF48051AA4800F064FD7D
:1006AC0001224FF40051A74800F05EFD7B68022B3D
:1006BC0028D100228021A34800F056FD00224FF4DF
:1006CC008071A04800F050FD01224FF400719D484C
:1006DC0000F04AFD00224FF480619A4800F044FD7E
:1006EC0000224FF40061974800F03EFD01224FF4C8
:1006FC008051944800F038FD00224FF4005191488D
:10070C0000F032FD7B68032B28D1002280218D481C
:10071C0000F02AFD00224FF480718A4800F024FD7D
:10072C0000224FF40071874800F01EFD00224FF4A8
:10073C008061844800F018FD01224FF4006181486B
:10074C0000F012FD01224FF480517E4800F00CFDA8
:10075C0000224FF400517B4800F006FD7B68042B0F
:10076C0028D101228021774800F0FEFC00224FF4B2
:10077C008071744800F0F8FC00224FF4007171484D
:10078C0000F0F2FC01224FF480616E4800F0ECFCAA
:10079C0001224FF400616B4800F0E6FC00224FF49C
:1007AC008051684800F0E0FC00224FF4005165488D
:1007BC0000F0DAFC7B68052B28D1002280216148EF
:1007CC0000F0D2FC01224FF480715E4800F0CCFCAA
:1007DC0000224FF400715B4800F0C6FC00224FF47D
:1007EC008061584800F0C0FC01224FF4006155486C
:1007FC0000F0BAFC00224FF48051524800F0B4FCD7
:10080C0000224FF400514F4800F0AEFC7B68062BE1
:10081C0028D1002280214B4800F0A6FC01224FF485
:10082C008071484800F0A0FC00224FF4007145484C
:10083C0000F09AFC00224FF48061424800F094FCD6
:10084C0000224FF400613F4800F08EFC00224FF470
:10085C0080513C4800F088FC00224FF4005139488C
:10086C0000F082FC7B68072B28D1002280213548C0
:10087C0000F07AFC00224FF48071324800F074FCD6
:10088C0000224FF400712F4800F06EFC01224FF44F
:10089C0080612C4800F068FC01224FF4006129486B
:1008AC0000F062FC01224FF48051264800F05CFC01
:1008BC0001224FF40051234800F056FC7B68082BB2
:1008CC0028D1002280211F4800F04EFC00224FF45A
:1008DC0080711C4800F048FC00224FF4007119484C
:1008EC0000F042FC00224FF48061164800F03CFC02
:1008FC0000224FF40061134800F036FC00224FF444
:10090C008051104800F030FC00224FF400510D488B
:10091C0000F02AFC7B68092B2BD10022802109488E
:10092C0000F022FC00224FF48071064800F01CFC01
:10093C0000224FF40071034800F016FC00224FF423
:10094C00806101E0000C01400C4800F00DFC01221C
:10095C004FF40061094800F007FC00224FF480516D
:10096C00064800F001FC00224FF40051034800F04F
:10097C00FBFB00BF0837BD4680BD00BF000C01402B
:10098C0080B590B000AF07F118032822002118465B
:10099C0001F00EF83B1D00221A605A609A60DA6072
:1009AC001A610223BB610123BB621023FB6200238B
:1009BC007B6307F11803184600F0EEFB0346002B8F
:1009CC0001D000F06FF80F237B600023BB60002385
:1009DC00FB6000233B6100237B613B1D002118461B
:1009EC0000F05CFE0346002B01D000F05BF800BF6A
:1009FC004037BD4680BD000080B586B000AF07F122
:100A0C00080300221A605A609A60DA60224B9B69D4
:100A1C00214A43F0040393611F4B9B6903F00403C9
:100A2C007B607B681C4B9B691B4A43F008039361FA
:100A3C00194B9B6903F008033B603B6800224FF4A1
:100A4C00FC61164800F090FB002243F6FF7114483D
:100A5C0000F08AFB4FF4FC63BB600123FB600023B6
:100A6C003B6102237B6107F1080319460B4800F038
:100A7C00FFF943F6FF73BB600123FB6000233B616E
:100A8C0002237B6107F108031946054800F0F0F9D1
:100A9C0000BF1837BD4680BD001002400008014061
:100AAC00000C014080B400AF72B600BFFEE700003E
:100ABC0080B483B000AF0E4B9B690D4A43F0010329
:100ACC0093610B4B9B6903F001037B607B68084BC4
:100ADC00DB69074A43F08053D361054BDB6903F0B4
:100AEC0080533B603B6800BF0C37BD4680BC7047F1
:100AFC000010024080B400AFFEE780B400AFFEE708
:100B0C0080B400AFFEE780B400AFFEE780B400AF66
:100B1C00FEE780B400AF00BFBD4680BC704780B418
:100B2C0000AF00BFBD4680BC704780B400AF00BFB3
:100B3C00BD4680BC704780B500AF00F075F800BFB3
:100B4C0080BD80B400AF00BFBD4680BC70470000C4
:100B5C000C480D490D4A002302E0D458C45004330C
:100B6C00C4188C42F9D30A4A0A4C002301E01360E2
:100B7C000432A242FBD3FFF7E4FF00F0F5FEFFF7CF
:100B8C00DFFA7047000000200C0000200C1A00084F
:100B9C000C0000202C000020FEE7000080B500AF08
:100BAC00084B1B68074A43F010031360032000F046
:100BBC002BF90F2000F008F8FFF77AFF00231846F6
:100BCC0080BD00BF0020024080B582B000AF7860CD
:100BDC00124B1A68124B1B7819464FF47A73B3FBFD
:100BEC00F1F3B2FBF3F3184600F035F90346002B92
:100BFC0001D001230EE07B680F2B0AD80022796804
:100C0C004FF0FF3000F00BF9064A7B6813600023AD
:100C1C0000E0012318460837BD4680BD00000020C7
:100C2C00080000200400002080B400AF054B1B78A6
:100C3C001A46054B1B681344034A136000BFBD469C
:100C4C0080BC7047080000202800002080B400AF52
:100C5C00024B1B681846BD4680BC7047280000201C
:100C6C0080B584B000AF7860FFF7F0FFB8607B68A8
:100C7C00FB60FB68B3F1FF3F05D00A4B1B781A46AB
:100C8C00FB681344FB6000BFFFF7E0FF0246BB6844
:100C9C00D31AFA689A42F7D800BF00BF1037BD4686
:100CAC0080BD00BF0800002080B485B000AF786024
:100CBC007B6803F00703FB600C4BDB68BB60BA6816
:100CCC004FF6FF031340BB60FB681A02BB6813436B
:100CDC0043F0BF6343F40033BB60044ABB68D3608A
:100CEC0000BF1437BD4680BC704700BF00ED00E06C
:100CFC0080B400AF044BDB681B0A03F007031846F3
:100D0C00BD4680BC704700BF00ED00E080B483B0EE
:100D1C0000AF03463960FB7197F90730002B0ADBF3
:100D2C003B68DAB20C4997F907301201D2B20B4486
:100D3C0083F800230AE03B68DAB20849FB7903F038
:100D4C000F03043B1201D2B20B441A7600BF0C37CE
:100D5C00BD4680BC704700BF00E100E000ED00E044
:100D6C0080B489B000AFF860B9607A60FB6803F0BA
:100D7C000703FB61FB69C3F10703042B28BF0423A2
:100D8C00BB61FB690433062B02D9FB69033B00E012
:100D9C0000237B614FF0FF32BB6902FA03F3DA43A5
:100DAC00BB681A407B699A404FF0FF317B6901FAAE
:100DBC0003F3D9437B680B40134318462437BD46D5
:100DCC0080BC704780B582B000AF78607B68013B17
:100DDC00B3F1807F01D301230FE00A4A7B68013B0A
:100DEC0053600F214FF0FF30FFF790FF054B0022AF
:100DFC009A60044B07221A60002318460837BD4638
:100E0C0080BD00BF10E000E080B582B000AF78601C
:100E1C007868FFF749FF00BF0837BD4680BD80B535
:100E2C0086B000AF0346B9607A60FB7300237B6128
:100E3C00FFF75EFF78617A68B9687869FFF790FF11
:100E4C00024697F90F3011461846FFF75FFF00BFB7
:100E5C001837BD4680BD80B582B000AF7860786829
:100E6C00FFF7B0FF034618460837BD4680BD0000AB
:100E7C0080B48BB000AF7860396000237B620023B4
:100E8C003B6261E101227B6A02FA03F3FB613B687E
:100E9C001B68FA691340BB61BA69FB699A4240F05E
:100EAC0050813B685B68974A93425ED0954A934267
:100EBC0075D8954A934258D0934A93426FD8934A27
:100ECC00934252D0914A934269D8914A93424CD062
:100EDC008F4A934263D88F4A934246D08D4A9342AD
:100EEC005DD8122B2AD8122B59D801A252F823F014
:100EFC00770F0008510F0008630F0008A50F0008BA
:100F0C00AB0F0008AB0F0008AB0F0008AB0F0008CD
:100F1C00AB0F0008AB0F0008AB0F0008AB0F0008BD
:100F2C00AB0F0008AB0F0008AB0F0008AB0F0008AD
:100F3C00AB0F0008590F00086D0F0008764A93425A
:100F4C0013D02CE03B68DB683B6229E03B68DB6834
:100F5C0004333B6224E03B68DB6808333B621FE0F0
:100F6C003B68DB680C333B621AE03B689B68002BE8
:100F7C0002D104233B6213E03B689B68012B05D133
:100F8C0008233B627B68FA691A6109E008233B621B
:100F9C007B68FA695A6103E000233B6200E000BF02
:100FAC00BB69FF2B01D87B6801E07B6804337B6154
:100FBC00BB69FF2B02D87B6A9B0002E07B6A083B73
:100FCC009B003B617B691A680F213B6901FA03F3B3
:100FDC00DB431A40396A3B6901FA03F31A437B6914
:100FEC001A603B685B6803F08053002B00F0A9800B
:100FFC004A4B9B69494A43F001039361474B9B69F8
:10100C0003F00103BB60BB68454A7B6A9B08023353
:10101C0052F82330FB607B6A03F003039B000F2222
:10102C0002FA03F3DB43FA681340FB607B683D4A2A
:10103C0093420DD07B683C4A934207D07B683B4A75
:10104C00934201D1022304E0032302E0012300E0D8
:10105C0000237A6A02F0030292009340FA68134369
:10106C00FB602F497B6A9B080233FA6841F8232006
:10107C003B685B6803F48033002B06D02C4B1A685A
:10108C002B49BB6913430B6006E0294B1A68BB69FB
:10109C00DB43274913400B603B685B6803F4003368
:1010AC00002B06D0224B5A682149BB6913434B6075
:1010BC0006E01F4B5A68BB69DB431D4913404B606C
:1010CC003B685B6803F48013002B06D0184B9A68BE
:1010DC001749BB6913438B6006E0154B9A68BB69D3
:1010EC00DB43134913408B603B685B6803F40013CC
:1010FC00002B1FD00E4BDA680D49BB691343CB6034
:10110C001FE000BF00003210000031100000221060
:10111C0000002110000012100000111000100240FD
:10112C000000014000080140000C0140001001408B
:10113C00000401400B4BDA68BB69DB4309491340DF
:10114C00CB607B6A01337B623B681A687B6A22FA4C
:10115C0003F3002B7FF496AE00BF00BF2C37BD46C7
:10116C0080BC70470004014080B483B000AF78604D
:10117C000B467B8013467B707B78002B03D07A88E0
:10118C007B681A6103E07B881A047B681A6100BFD4
:10119C000C37BD4680BC704780B586B000AF786018
:1011AC007B68002B01D1012372E27B681B6803F082
:1011BC000103002B00F08780924B5B6803F00C035B
:1011CC00042B0CD08F4B5B6803F00C03082B12D153
:1011DC008C4B5B6803F48033B3F5803F0BD1894BA8
:1011EC001B6803F40033002B6CD07B685B68002B0E
:1011FC0068D101234CE27B685B68B3F5803F06D174
:10120C00804B1B687F4A43F4803313602EE07B686D
:10121C005B68002B0CD17B4B1B687A4A23F4803320
:10122C001360784B1B68774A23F4802313601DE00E
:10123C007B685B68B3F5A02F0CD1724B1B68714AAD
:10124C0043F4802313606F4B1B686E4A43F4803366
:10125C0013600BE06B4B1B686A4A23F480331360FA
:10126C00684B1B68674A23F4802313607B685B68B8
:10127C00002B13D0FFF7EAFC386108E0FFF7E6FC1F
:10128C0002463B69D31A642B01D9032300E25D4B60
:10129C001B6803F40033002BF0D014E0FFF7D6FCEE
:1012AC00386108E0FFF7D2FC02463B69D31A642B85
:1012BC0001D90323ECE1534B1B6803F40033002BDF
:1012CC00F0D100E000BF7B681B6803F00203002B29
:1012DC0063D04C4B5B6803F00C03002B0BD0494BD9
:1012EC005B6803F00C03082B1CD1464B5B6803F4C2
:1012FC008033002B16D1434B1B6803F00203002BE9
:10130C0005D07B681B69012B01D00123C0E13D4B4B
:10131C001B6823F0F8027B685B69DB0039491343D7
:10132C000B603AE07B681B69002B20D0364B012206
:10133C001A60FFF78BFC386108E0FFF787FC024668
:10134C003B69D31A022B01D90323A1E12D4B1B6856
:10135C0003F00203002BF0D02A4B1B6823F0F80299
:10136C007B685B69DB00274913430B6015E0264B58
:10137C0000221A60FFF76AFC386108E0FFF766FC90
:10138C0002463B69D31A022B01D9032380E11D4B82
:10139C001B6803F00203002BF0D17B681B6803F081
:1013AC000803002B3AD07B689B69002B19D0174B94
:1013BC0001221A60FFF74AFC386108E0FFF746FC8F
:1013CC0002463B69D31A022B01D9032360E10D4B72
:1013DC005B6A03F00203002BF0D0012000F0A6FAA8
:1013EC001CE00A4B00221A60FFF730FC38610FE05A
:1013FC00FFF72CFC02463B69D31A022B08D90323B6
:10140C0046E100BF0010024000004242800442420C
:10141C00924B5B6A03F00203002BE9D17B681B68DB
:10142C0003F00403002B00F0A6800023FB758B4B0C
:10143C00DB6903F08053002B0DD1884BDB69874AA5
:10144C0043F08053D361854BDB6903F08053BB6061
:10145C00BB680123FB75824B1B6803F48073002B64
:10146C0018D17F4B1B687E4A43F480731360FFF7DF
:10147C00EDFB386108E0FFF7E9FB02463B69D31A44
:10148C00642B01D9032303E1754B1B6803F48073B0
:10149C00002BF0D07B68DB68012B06D16F4B1B6AED
:1014AC006E4A43F0010313622DE07B68DB68002B6E
:1014BC000CD16A4B1B6A694A23F001031362674B18
:1014CC001B6A664A23F0040313621CE07B68DB682A
:1014DC00052B0CD1614B1B6A604A43F00403136269
:1014EC005E4B1B6A5D4A43F0010313620BE05B4BDE
:1014FC001B6A5A4A23F001031362584B1B6A574A62
:10150C0023F0040313627B68DB68002B15D0FFF714
:10151C009DFB38610AE0FFF799FB02463B69D31A41
:10152C0041F28832934201D90323B1E04B4B1B6A41
:10153C0003F00203002BEED014E0FFF787FB3861B9
:10154C000AE0FFF783FB02463B69D31A41F288326B
:10155C00934201D903239BE0404B1B6A03F0020327
:10156C00002BEED1FB7D012B05D13C4BDB693B4ABB
:10157C0023F08053D3617B68DB69002B00F08780FC
:10158C00364B5B6803F00C03082B61D07B68DB697E
:10159C00022B46D1334B00221A60FFF757FB386100
:1015AC0008E0FFF753FB02463B69D31A022B01D923
:1015BC0003236DE0294B1B6803F00073002BF0D163
:1015CC007B681B6AB3F5803F08D1244B5B6823F41E
:1015DC0000327B689B68214913434B601F4B5B684F
:1015EC0023F474127B68196A7B685B6A0B431B4992
:1015FC0013434B601B4B01221A60FFF727FB38612A
:10160C0008E0FFF723FB02463B69D31A022B01D9F2
:10161C0003233DE0114B1B6803F00073002BF0D04B
:10162C0035E0104B00221A60FFF710FB386108E020
:10163C00FFF70CFB02463B69D31A022B01D903239B
:10164C0026E0064B1B6803F00073002BF0D11EE064
:10165C007B68DB69012B07D1012319E000100240E4
:10166C0000700040600042420B4B5B68FB60FB6803
:10167C0003F480327B681B6A9A4206D1FB6803F440
:10168C0070127B685B6A9A4201D0012300E0002350
:10169C0018461837BD4680BD0010024080B584B096
:1016AC0000AF786039607B68002B01D10123D0E05A
:1016BC006A4B1B6803F007033A689A4210D9674BD0
:1016CC001B6823F0070265493B6813430B60634BAF
:1016DC001B6803F007033A689A4201D00123B8E073
:1016EC007B681B6803F00203002B20D07B681B680F
:1016FC0003F00403002B05D0594B5B68584A43F4A4
:10170C00E06353607B681B6803F00803002B05D073
:10171C00534B5B68524A43F460535360504B5B68C5
:10172C0023F0F0027B689B684D4913434B607B6848
:10173C001B6803F00103002B40D07B685B68012B16
:10174C0007D1474B1B6803F40033002B15D1012341
:10175C007FE07B685B68022B07D1414B1B6803F071
:10176C000073002B09D1012373E03D4B1B6803F080
:10177C000203002B01D101236BE0394B5B6823F092
:10178C0003027B685B68364913434B60FFF75EFAD4
:10179C00F8600AE0FFF75AFA0246FB68D31A41F2E6
:1017AC008832934201D9032353E02D4B5B6803F03D
:1017BC000C027B685B689B009A42EBD1274B1B6841
:1017CC0003F007033A689A4210D2244B1B6823F0AB
:1017DC00070222493B6813430B60204B1B6803F044
:1017EC0007033A689A4201D0012332E07B681B68F8
:1017FC0003F00403002B08D0194B5B6823F4E06260
:10180C007B68DB68164913434B607B681B6803F0ED
:10181C000803002B09D0124B5B6823F460527B68E1
:10182C001B69DB000E4913434B6000F021F80246A4
:10183C000B4B5B681B0903F00F030A49CB5C22FAC4
:10184C0003F3094A1360094B1B681846FFF7BCF9F0
:10185C00002318461037BD4680BD00BF0020024053
:10186C0000100240F41900080000002004000020C1
:10187C0090B48AB000AF294B3C1D0FCB84E80F000D
:10188C0040F201233B800023FB610023BB6100235A
:10189C007B6200237B6100233B62214B5B68FB6115
:1018AC00FB6903F00C03042B02D0082B03D02BE0B4
:1018BC001C4B3B622BE0FB699B0C03F00F032833A2
:1018CC003B4413F8243C7B61FB6903F48033002B0D
:1018DC0012D0134B5B685B0C03F0010328333B44C1
:1018EC0013F8283CBB617B690E4A03FB02F2BB690F
:1018FC00B2FBF3F37B6204E07B690B4A02FB03F35C
:10190C007B627B6A3B6202E0064B3B6200BF3B6A38
:10191C0018462837BD4690BC704700BFE419000834
:10192C000010024000127A0000093D0080B485B01E
:10193C0000AF78600A4B1B680A4AA2FB03235B0AC0
:10194C007A6802FB03F3FB6000BFFB685A1EFA6067
:10195C00002BF9D100BF00BF1437BD4680BC7047C7
:10196C0000000020D34D621070B500260C4D0D4CBC
:10197C00641BA410A64209D100F022F800260A4DDF
:10198C000A4C641BA410A64205D170BD55F8043B4B
:10199C0098470136EEE755F8043B98470136F2E7D5
:1019AC00041A0008041A0008041A0008081A00088F
:1019BC0003460244934200D1704703F8011BF9E738
:1019CC00F8B500BFF8BC08BC9E467047F8B500BF20
:0819DC00F8BC08BC9E467047F0
:1019E40002030405060708090A0B0C0D0E0F10105C
:1019F40000000000000000000102030406070809BB
:041A040031010008A4
:041A08000D010008C4
:0C1A0C000024F4001000000001000000A5
:0400000508000B5D87
:00000001FF
