:020000040800F2
:1000000000280020850C0008010C0008070C0008DF
:100010000D0C0008130C0008190C0008000000006B
:100020000000000000000000000000001F0C00089D
:100030002B0C000800000000370C0008430C0008DF
:10004000CD0C0008CD0C0008CD0C0008CD0C00082C
:10005000CD0C0008CD0C0008CD0C0008CD0C00081C
:10006000CD0C0008CD0C0008CD0C0008CD0C00080C
:10007000CD0C0008CD0C0008CD0C0008CD0C0008FC
:10008000CD0C0008CD0C0008CD0C0008CD0C0008EC
:10009000CD0C0008CD0C0008CD0C0008CD0C0008DC
:1000A000CD0C0008CD0C0008CD0C0008CD0C0008CC
:1000B000510C0008CD0C000800000000CD0C000819
:1000C000CD0C00080000000000000000CD0C00086E
:1000D00000000000CD0C0008650C000800000000C6
:1000E000CD0C0008CD0C0008CD0C0008000000006D
:1000F0000000000000000000000000000000000000
:0C01000000000000000000005FF808F1A3
:10010C0010B5054C237833B9044B13B10448AFF345
:10011C0000800123237010BD0C00002000000000A3
:10012C00482F000808B5034B1BB103490348AFF334
:10013C00008008BD0000000010000020482F0008BF
:10014C00034613F8012B002AFBD1181A013870470B
:10015C0080B400AF034B00221A6000BFBD4680BCC8
:10016C00704700BF4803002080B483B000AF002369
:10017C007B6046E028497A6813469B0013449B0039
:10018C000B4404331B68002B13D023497A681346A5
:10019C009B0013449B000B4404331B68591E1E48E0
:1001AC007A6813469B0013449B0003440433196084
:1001BC0024E019497A6813469B0013449B000B44B6
:1001CC000833196814487A6813469B0013449B0043
:1001DC0003440433196010497A6813469B00134496
:1001EC009B000B440C331B68591C0B487A68134654
:1001FC009B0013449B0003440C3319607B68013350
:10020C007B607A68054B1B689A42B3D300BF00BF72
:10021C000C37BD4680BC70472800002048030020E6
:10022C0080B485B000AFF860B9607A60224B1B686F
:10023C00272B3BD8204B1A68204913469B001344AC
:10024C009B000B44FA681A601B4B1A681B49134637
:10025C009B0013449B000B440433BA681A60164B82
:10026C001A68164913469B0013449B000B44083331
:10027C007A681A60104B1A68104913469B00134495
:10028C009B000B440C3300221A600B4B1A680A4B70
:10029C0019680A4813469B0013449B00034410330F
:1002AC001960054B1B680133034A136000BF1437F8
:1002BC00BD4680BC704700BF4803002028000020CA
:1002CC0080B582B000AF00237B6038E021497A68AA
:1002DC0013469B0013449B000B440C331B68002BF0
:1002EC002AD01C497A6813469B0013449B000B448C
:1002FC001B68984717497A6813469B0013449B0068
:10030C000B440C331B68591E12487A6813469B0029
:10031C0013449B0003440C3319600E497A6813464E
:10032C009B0013449B000B4408331B68002B03D128
:10033C007B68184600F012F87B6801337B607A68A2
:10034C00054B1B689A42C1D300BF00BF0837BD469E
:10035C0080BD00BF280000204803002080B485B079
:10036C0000AF7860324B1B687A689A425BD27B682C
:10037C00FB604CE0FB685A1C2E4913469B0013444F
:10038C009B000B4419682B48FA6813469B001344D6
:10039C009B0003441960FB685A1C264913469B00BA
:1003AC0013449B000B44083319682248FA6813461F
:1003BC009B0013449B00034408331960FB685A1CD0
:1003CC001C4913469B0013449B000B440C331968C7
:1003DC001848FA6813469B0013449B0003440C33E3
:1003EC001960FB685A1C134913469B0013449B006D
:1003FC000B44043319680F48FA6813469B001344E6
:10040C009B00034404331960FB680133FB60084B09
:10041C001B685A1EFB689A42ACD8054B1B68013B03
:10042C00034A136000E000BF1437BD4680BC704720
:10043C00480300202800002080B500AF01220121D4
:10044C000C4800F0DBFF012202210A4800F0D6FF25
:10045C0001220421074800F0D1FF012208210548A0
:10046C0000F0CCFF01221021024800F0C7FF00BFB2
:10047C0080BD00BF000C014080B588B000AF0121E9
:10048C001E4800F0D3FF1E4A3B4692E8030083E867
:10049C00030007F1080300221A605A609A60DA60C0
:1004AC001A619A82174B1A6813469B0013445B001F
:1004BC000A221549184602F0E5FC3B46124918463B
:1004CC0002F0EAFC3B461846FFF73AFE03461A4692
:1004DC003B4613440D4A1068186012791A713B465A
:1004EC001846FFF72DFE03469AB239466423084896
:1004FC0002F001F800BF2037BD4680BD000C014062
:10050C00682F0008F8030020D8030020602F000893
:10051C009403002080B588B000AF02211E4800F083
:10052C0085FF1E4A3B4692E8030083E8030007F16F
:10053C00080300221A605A609A60DA601A619A8283
:10054C00174B1A6813469B0013445B000A2215498B
:10055C00184602F097FC3B461249184602F09CFCE8
:10056C003B461846FFF7ECFD03461A463B46134440
:10057C000D4A1068186012791A713B461846FFF73D
:10058C00DFFD03469AB239466423084801F0B3FFF5
:10059C0000BF2037BD4680BD000C0140882F0008ED
:1005AC00F8030020D8030020602F000894030020DB
:1005BC0080B588B000AF04211E4800F037FF1E4AFA
:1005CC003B4692E8030083E8030007F1080300228E
:1005DC001A605A609A60DA601A619A82174B1A682C
:1005EC0013469B0013445B000A221549184602F07F
:1005FC0049FC3B461249184602F04EFC3B46184655
:10060C00FFF79EFD03461A463B4613440D4A1068FD
:10061C00186012791A713B461846FFF791FD034694
:10062C009AB239466423084801F065FF00BF2037B1
:10063C00BD4680BD000C0140A82F0008F803002027
:10064C00D8030020602F00089403002080B588B0E8
:10065C0000AF08211E4800F0E9FE1E4A3B4692E816
:10066C00030083E8030007F1080300221A605A60B4
:10067C009A60DA601A619A82174B1A6813469B00CB
:10068C0013445B000A221549184602F0FBFB3B465B
:10069C001249184602F000FC3B461846FFF750FD85
:1006AC0003461A463B4613440D4A106818601279EB
:1006BC001A713B461846FFF743FD03469AB239467A
:1006CC006423084801F017FF00BF2037BD4680BDEA
:1006DC00000C0140C82F0008F8030020D8030020AC
:1006EC00602F00089403002080B588B000AF102163
:1006FC001F4800F09BFE1F4A3B4607CA03C31A80E3
:10070C000233120C1A7007F10B0300221A605A60A4
:10071C009A60DA60C3F80F20174B1A6813469B00D7
:10072C0013445B000A221549184602F0ABFB3B460A
:10073C001249184602F0B0FB3B461846FFF700FD85
:10074C0003461A463B4613440D4A1068186012794A
:10075C001A713B461846FFF7F3FC03469AB239462A
:10076C006423084801F0C7FE00BF2037BD4680BD9A
:10077C00000C0140E82F0008F8030020D8030020EB
:10078C00602F00089403002080B500AF00F09AFAA7
:10079C0000F03CF800F0ECF800F074F800F0BEF853
:1007AC00144801F0C7FAFFF7D3FCFFF745FE6420AD
:1007BC0000F036F9C82200210F48FFF731FD642202
:1007CC00C8210E48FFF72CFDC8224FF496710C4837
:1007DC00FFF726FD4FF496724FF4C8710948FFF7E6
:1007EC001FFD00224FF4FA710748FFF719FDFFF7C0
:1007FC0067FDFCE74C030020850400082105000878
:10080C00BD05000859060008F506000880B590B033
:10081C0000AF07F1180328220021184602F034FB20
:10082C003B1D00221A605A609A60DA601A6102233A
:10083C00BB610123BB621023FB6200237B6307F1C6
:10084C001803184600F00CFE0346002B01D000F0F4
:10085C00E1F80F237B600023BB600023FB600023C7
:10086C003B6100237B613B1D0021184601F07AF8A7
:10087C000346002B01D000F0CDF800BF4037BD4639
:10088C0080BD000080B586B000AF07F108030022E0
:10089C001A605A609A60DA603B4600221A605A600D
:1008AC001D4B4FF080421A601B4B41F63F725A6051
:1008BC00194B00229A60184B0922DA60164B002261
:1008CC001A61154B00229A61134801F0E3F90346B3
:1008DC00002B01D000F09EF84FF48053BB6007F161
:1008EC00080319460C4801F079FB0346002B01D094
:1008FC0000F090F800233B6000237B603B461946D8
:10090C00054801F041FD0346002B01D000F082F8B0
:10091C0000BF1837BD4680BD4C03002080B500AF2A
:10092C00114B124A1A60104B4FF416525A600E4B70
:10093C0000229A600C4B0022DA600B4B00221A61E9
:10094C00094B0C225A61084B00229A61064B00227B
:10095C00DA61054801F082FD0346002B01D000F05E
:10096C0059F800BF80BD00BF940300200044004034
:10097C0080B586B000AF07F1080300221A605A60F8
:10098C009A60DA60174B9B69164A43F00403936133
:10099C00144B9B6903F004037B607B68114B9B69D0
:1009AC00104A43F0080393610E4B9B6903F0080354
:1009BC003B603B6800221F210B4800F01FFD1F23EA
:1009CC00BB600123FB6000233B6102237B6107F1C9
:1009DC0008031946044800F095FB00BF1837BD46C4
:1009EC0080BD00BF00100240000C014080B582B0F9
:1009FC0000AF7860FFF7B8FB054B1B680133044A66
:100A0C00136000F021F800BF0837BD4680BD00BF61
:100A1C00F803002080B400AF72B600BFFEE7000000
:100A2C0080B483B000AF7860054A7B681360054BD7
:100A3C0000221A6000BF0C37BD4680BC704700BF57
:100A4C0004040020FC03002080B400AF114B1B6891
:100A5C00002B0BDD0F4B1B68013B0E4A13600D4B3B
:100A6C001B68002B02DC0C4B01221A600B4B1B6821
:100A7C00002B0BDD094B1B68013B084A1360074B2D
:100A8C001B68002B02DC064B01221A6000BFBD461E
:100A9C0080BC704704040020FC03002008040020E4
:100AAC000004002080B485B000AF154B9B69144A3C
:100ABC0043F001039361124B9B6903F00103BB608C
:100ACC00BB680F4BDB690E4A43F08053D3610C4B70
:100ADC00DB6903F080537B607B680A4B5B68FB60CF
:100AEC00FB6823F0E063FB60FB6843F08063FB6012
:100AFC00044AFB68536000BF1437BD4680BC704786
:100B0C00001002400000014080B584B000AF786056
:100B1C007B681B68B3F1804F13D10C4BDB690B4A1C
:100B2C0043F00103D361094BDB6903F00103FB6064
:100B3C00FB68002200211C2000F0FDF91C2000F0B5
:100B4C0016FA00BF1037BD4680BD00BF0010024032
:100B5C0080B588B000AF786007F1100300221A60EE
:100B6C005A609A60DA607B681B681F4A934237D1DF
:100B7C001E4BDB691D4A43F40033D3611B4BDB690D
:100B8C0003F40033FB60FB68184B9B69174A43F076
:100B9C0004039361154B9B6903F00403BB60BB68B2
:100BAC0004233B6102237B610323FB6107F11003E8
:100BBC0019460F4800F0A6FA08233B6100237B611D
:100BCC000023BB6107F110031946094800F09AFA9B
:100BDC0000220021262000F0AEF9262000F0C7F9F3
:100BEC0000BF2037BD4680BD0044004000100240CD
:100BFC000008014080B400AFFEE780B400AFFEE710
:100C0C0080B400AFFEE780B400AFFEE780B400AF65
:100C1C00FEE780B400AF00BFBD4680BC704780B417
:100C2C0000AF00BFBD4680BC704780B400AF00BFB2
:100C3C00BD4680BC704780B500AF00F089F800BF9E
:100C4C0080BD000080B500AF024801F0BFF800BFC6
:100C5C0080BD00BF4C03002080B500AF024801F0FE
:100C6C00DDFC00BF80BD00BF9403002080B400AF4A
:100C7C0000BFBD4680BC70470C480D490D4A00238F
:100C8C0002E0D458C4500433C4188C42F9D30A4A35
:100C9C000A4C002301E013600432A242FBD3FFF79D
:100CAC00E5FF02F0B3F8FFF76FFD7047000000207E
:100CBC000C000020603000080C0000201004002004
:100CCC00FEE7000080B500AF084B1B68074A43F0F5
:100CDC0010031360032000F023F90F2000F008F834
:100CEC00FFF7E0FE0023184680BD00BF0020024045
:100CFC0080B582B000AF7860124B1A68124B1B782B
:100D0C0019464FF47A73B3FBF1F3B2FBF3F31846C5
:100D1C0000F03BF90346002B01D001230EE07B6869
:100D2C000F2B0AD8002279684FF0FF3000F003F93E
:100D3C00064A7B681360002300E00123184608373D
:100D4C00BD4680BD000000200800002004000020EB
:100D5C0080B400AF054B1B781A46054B1B68134437
:100D6C00034A136000BFBD4680BC704708000020DA
:100D7C000C04002080B400AF024B1B681846BD4623
:100D8C0080BC70470C04002080B485B000AF786044
:100D9C007B6803F00703FB600C4BDB68BB60BA6835
:100DAC004FF6FF031340BB60FB681A02BB6813438A
:100DBC0043F0BF6343F40033BB60044ABB68D360A9
:100DCC0000BF1437BD4680BC704700BF00ED00E08B
:100DDC0080B400AF044BDB681B0A03F00703184612
:100DEC00BD4680BC704700BF00ED00E080B483B00E
:100DFC0000AF0346FB7197F90730002B0BDBFB7937
:100E0C0003F01F02064997F907305B09012000FA2D
:100E1C0002F241F8232000BF0C37BD4680BC70475E
:100E2C0000E100E080B483B000AF03463960FB7191
:100E3C0097F90730002B0ADB3B68DAB20C4997F9BB
:100E4C0007301201D2B20B4483F800230AE03B684E
:100E5C00DAB20849FB7903F00F03043B1201D2B25A
:100E6C000B441A7600BF0C37BD4680BC704700BFE0
:100E7C0000E100E000ED00E080B489B000AFF86064
:100E8C00B9607A60FB6803F00703FB61FB69C3F18F
:100E9C000703042B28BF0423BB61FB690433062B17
:100EAC0002D9FB69033B00E000237B614FF0FF326A
:100EBC00BB6902FA03F3DA43BB681A407B699A40B8
:100ECC004FF0FF317B6901FA03F3D9437B680B4088
:100EDC00134318462437BD4680BC704780B582B09A
:100EEC0000AF78607B68013BB3F1807F01D30123B5
:100EFC000FE00A4A7B68013B53600F214FF0FF3033
:100F0C00FFF790FF054B00229A60044B07221A60F2
:100F1C00002318460837BD4680BD00BF10E000E036
:100F2C0080B582B000AF78607868FFF72DFF00BF06
:100F3C000837BD4680BD80B586B000AF0346B960AA
:100F4C007A60FB7300237B61FFF742FF78617A685C
:100F5C00B9687869FFF790FF024697F90F30114690
:100F6C001846FFF75FFF00BF1837BD4680BD80B540
:100F7C0082B000AF0346FB7197F907301846FFF7B4
:100F8C0035FF00BF0837BD4680BD80B582B000AFCD
:100F9C0078607868FFF7A2FF034618460837BD460D
:100FAC0080BD80B485B000AF78600023FB737B6894
:100FBC0093F82130022B08D07B6804229A637B685B
:100FCC00002283F82020012320E07B681B681A682C
:100FDC007B681B6822F00E021A607B681B681A681B
:100FEC007B681B6822F001021A607B681A6C7B68B4
:100FFC00DB6B012101FA02F25A607B68012283F853
:10100C0021207B68002283F82020FB7B18461437B4
:10101C00BD4680BC7047000080B584B000AF7860DE
:10102C000023FB737B6893F82130022B05D07B687F
:10103C0004229A630123FB7351E07B681B681A68D6
:10104C007B681B6822F00E021A607B681B681A68AA
:10105C007B681B6822F001021A607B681B68224ABD
:10106C00934229D07B681B68204A934222D07B682C
:10107C001B681F4A93421AD07B681B681D4A934217
:10108C0012D07B681B681C4A93420AD07B681B6891
:10109C001A4A934202D14FF480130EE04FF0807342
:1010AC000BE04FF4803308E04FF4805305E04FF42D
:1010BC00807302E0102300E00123114A53607B6827
:1010CC00012283F821207B68002283F820207B6892
:1010DC005B6B002B03D07B685B6B78689847FB7B62
:1010EC0018461037BD4680BD080002401C00024067
:1010FC003000024044000240580002406C000240A4
:10110C000000024080B48BB000AF786039600023DF
:10111C007B6200233B6261E101227B6A02FA03F3EA
:10112C00FB613B681B68FA691340BB61BA69FB69D8
:10113C009A4240F050813B685B68974A93425ED07C
:10114C00954A934275D8954A934258D0934A934204
:10115C006FD8934A934252D0914A934269D8914A9C
:10116C0093424CD08F4A934263D88F4A934246D0D5
:10117C008D4A93425DD8122B2AD8122B59D801A232
:10118C0052F823F00B120008E5110008F7110008C3
:10119C00391200083F1200083F1200083F120008E5
:1011AC003F1200083F1200083F1200083F120008CF
:1011BC003F1200083F1200083F1200083F120008BF
:1011CC003F1200083F120008ED1100080112000840
:1011DC00764A934213D02CE03B68DB683B6229E0F3
:1011EC003B68DB6804333B6224E03B68DB68083314
:1011FC003B621FE03B68DB680C333B621AE03B68E8
:10120C009B68002B02D104233B6213E03B689B6874
:10121C00012B05D108233B627B68FA691A6109E04E
:10122C0008233B627B68FA695A6103E000233B6246
:10123C0000E000BFBB69FF2B01D87B6801E07B6835
:10124C0004337B61BB69FF2B02D87B6A9B0002E0F5
:10125C007B6A083B9B003B617B691A680F213B69E9
:10126C0001FA03F3DB431A40396A3B6901FA03F3D1
:10127C001A437B691A603B685B6803F08053002B50
:10128C0000F0A9804A4B9B69494A43F001039361E2
:10129C00474B9B6903F00103BB60BB68454A7B6A03
:1012AC009B08023352F82330FB607B6A03F0030384
:1012BC009B000F2202FA03F3DB43FA681340FB6036
:1012CC007B683D4A93420DD07B683C4A934207D0E1
:1012DC007B683B4A934201D1022304E0032302E0E2
:1012EC00012300E000237A6A02F00302920093408B
:1012FC00FA681343FB602F497B6A9B080233FA6838
:10130C0041F823203B685B6803F48033002B06D044
:10131C002C4B1A682B49BB6913430B6006E0294B15
:10132C001A68BB69DB43274913400B603B685B6859
:10133C0003F40033002B06D0224B5A682149BB69B9
:10134C0013434B6006E01F4B5A68BB69DB431D49D6
:10135C0013404B603B685B6803F48013002B06D092
:10136C00184B9A681749BB6913438B6006E0154B01
:10137C009A68BB69DB43134913408B603B685B681D
:10138C0003F40013002B1FD00E4BDA680D49BB6918
:10139C001343CB601FE000BF00003210000031107F
:1013AC00000022100000211000001210000011108B
:1013BC00001002400000014000080140000C0140F8
:1013CC0000100140000401400B4BDA68BB69DB43A1
:1013DC0009491340CB607B6A01337B623B681A6816
:1013EC007B6A22FA03F3002B7FF496AE00BF00BF9A
:1013FC002C37BD4680BC70470004014080B483B0DC
:10140C0000AF78600B467B8013467B707B78002B9B
:10141C0003D07A887B681A6103E07B881A047B68A6
:10142C001A6100BF0C37BD4680BC704780B485B0D4
:10143C0000AF78600B467B807B68DB68FB607A884A
:10144C00FB6813401A04FB68D9437B880B401A4392
:10145C007B681A6100BF1437BD4680BC7047000022
:10146C0080B586B000AF78607B68002B01D101237A
:10147C0072E27B681B6803F00103002B00F087808D
:10148C00924B5B6803F00C03042B0CD08F4B5B6806
:10149C0003F00C03082B12D18C4B5B6803F48033E4
:1014AC00B3F5803F0BD1894B1B6803F40033002B41
:1014BC006CD07B685B68002B68D101234CE27B68A5
:1014CC005B68B3F5803F06D1804B1B687F4A43F4C1
:1014DC00803313602EE07B685B68002B0CD17B4B58
:1014EC001B687A4A23F480331360784B1B68774A65
:1014FC0023F4802313601DE07B685B68B3F5A02F99
:10150C000CD1724B1B68714A43F4802313606F4BF0
:10151C001B686E4A43F4803313600BE06B4B1B6803
:10152C006A4A23F480331360684B1B68674A23F4C0
:10153C00802313607B685B68002B13D0FFF71AFCC9
:10154C00386108E0FFF716FC02463B69D31A642B9E
:10155C0001D9032300E25D4B1B6803F40033002B1D
:10156C00F0D014E0FFF706FC386108E0FFF702FC4E
:10157C0002463B69D31A642B01D90323ECE1534B8C
:10158C001B6803F40033002BF0D100E000BF7B6834
:10159C001B6803F00203002B63D04C4B5B6803F019
:1015AC000C03002B0BD0494B5B6803F00C03082B8E
:1015BC001CD1464B5B6803F48033002B16D1434B94
:1015CC001B6803F00203002B05D07B681B69012B01
:1015DC0001D00123C0E13D4B1B6823F0F8027B686E
:1015EC005B69DB00394913430B603AE07B681B698C
:1015FC00002B20D0364B01221A60FFF7BBFB386161
:10160C0008E0FFF7B7FB02463B69D31A022B01D95E
:10161C000323A1E12D4B1B6803F00203002BF0D038
:10162C002A4B1B6823F0F8027B685B69DB002749B7
:10163C0013430B6015E0264B00221A60FFF79AFB50
:10164C00386108E0FFF796FB02463B69D31A022B80
:10165C0001D9032380E11D4B1B6803F00203002B0F
:10166C00F0D17B681B6803F00803002B3AD07B6831
:10167C009B69002B19D0174B01221A60FFF77AFBDC
:10168C00386108E0FFF776FB02463B69D31A022B60
:10169C0001D9032360E10D4B5B6A03F00203002BBD
:1016AC00F0D0012000F0D8FA1CE00A4B00221A609E
:1016BC00FFF760FB38610FE0FFF75CFB02463B690C
:1016CC00D31A022B08D9032346E100BF00100240B5
:1016DC000000424280044242924B5B6A03F00203D8
:1016EC00002BE9D17B681B6803F00403002B00F08E
:1016FC00A6800023FB758B4BDB6903F08053002B1A
:10170C000DD1884BDB69874A43F08053D361854BFD
:10171C00DB6903F08053BB60BB680123FB75824B14
:10172C001B6803F48073002B18D17F4B1B687E4A17
:10173C0043F480731360FFF71DFB386108E0FFF77B
:10174C0019FB02463B69D31A642B01D9032303E12D
:10175C00754B1B6803F48073002BF0D07B68DB683F
:10176C00012B06D16F4B1B6A6E4A43F001031362C7
:10177C002DE07B68DB68002B0CD16A4B1B6A694A35
:10178C0023F001031362674B1B6A664A23F00403C0
:10179C0013621CE07B68DB68052B0CD1614B1B6A68
:1017AC00604A43F0040313625E4B1B6A5D4A43F0CC
:1017BC00010313620BE05B4B1B6A5A4A23F00103D3
:1017CC001362584B1B6A574A23F0040313627B685D
:1017DC00DB68002B15D0FFF7CDFA38610AE0FFF774
:1017EC00C9FA02463B69D31A41F28832934201D9B5
:1017FC000323B1E04B4B1B6A03F00203002BEED02A
:10180C0014E0FFF7B7FA38610AE0FFF7B3FA0246C3
:10181C003B69D31A41F28832934201D903239BE0EE
:10182C00404B1B6A03F00203002BEED1FB7D012B16
:10183C0005D13C4BDB693B4A23F08053D3617B6879
:10184C00DB69002B00F08780364B5B6803F00C03E0
:10185C00082B61D07B68DB69022B46D1334B00220D
:10186C001A60FFF787FA386108E0FFF783FA02463F
:10187C003B69D31A022B01D903236DE0294B1B685A
:10188C0003F00073002BF0D17B681B6AB3F5803F2B
:10189C0008D1244B5B6823F400327B689B68214998
:1018AC0013434B601F4B5B6823F474127B68196AFB
:1018BC007B685B6A0B431B4913434B601B4B012238
:1018CC001A60FFF757FA386108E0FFF753FA02463F
:1018DC003B69D31A022B01D903233DE0114B1B6842
:1018EC0003F00073002BF0D035E0104B00221A608F
:1018FC00FFF740FA386108E0FFF73CFA02463B6913
:10190C00D31A022B01D9032326E0064B1B6803F0E4
:10191C000073002BF0D11EE07B68DB69012B07D133
:10192C00012319E0001002400070004060004242A8
:10193C000B4B5B68FB60FB6803F480327B681B6AB3
:10194C009A4206D1FB6803F470127B685B6A9A4278
:10195C0001D0012300E0002318461837BD4680BD96
:10196C000010024080B584B000AF786039607B68AD
:10197C00002B01D10123D0E06A4B1B6803F0070355
:10198C003A689A4210D9674B1B6823F007026549E5
:10199C003B6813430B60634B1B6803F007033A6807
:1019AC009A4201D00123B8E07B681B6803F0020364
:1019BC00002B20D07B681B6803F00403002B05D0A0
:1019CC00594B5B68584A43F4E06353607B681B686F
:1019DC0003F00803002B05D0534B5B68524A43F4C9
:1019EC0060535360504B5B6823F0F0027B689B683C
:1019FC004D4913434B607B681B6803F00103002BBC
:101A0C0040D07B685B68012B07D1474B1B6803F404
:101A1C000033002B15D101237FE07B685B68022B20
:101A2C0007D1414B1B6803F00073002B09D1012334
:101A3C0073E03D4B1B6803F00203002B01D1012323
:101A4C006BE0394B5B6823F003027B685B683649BB
:101A5C0013434B60FFF78EF9F8600AE0FFF78AF941
:101A6C000246FB68D31A41F28832934201D9032310
:101A7C0053E02D4B5B6803F00C027B685B689B00AA
:101A8C009A42EBD1274B1B6803F007033A689A4242
:101A9C0010D2244B1B6823F0070222493B681343E6
:101AAC000B60204B1B6803F007033A689A4201D085
:101ABC00012332E07B681B6803F00403002B08D081
:101ACC00194B5B6823F4E0627B68DB6816491343AF
:101ADC004B607B681B6803F00803002B09D0124B8A
:101AEC005B6823F460527B681B69DB000E4913436F
:101AFC004B6000F021F802460B4B5B681B0903F0AE
:101B0C000F030A49CB5C22FA03F3094A1360094B11
:101B1C001B681846FFF7ECF8002318461037BD4633
:101B2C0080BD00BF002002400010024018300008A9
:101B3C00000000200400002090B48AB000AF294BB4
:101B4C003C1D0FCB84E80F0040F201233B800023A7
:101B5C00FB610023BB6100237B6200237B610023BC
:101B6C003B62214B5B68FB61FB6903F00C03042BAC
:101B7C0002D0082B03D02BE01C4B3B622BE0FB6903
:101B8C009B0C03F00F0328333B4413F8243C7B617C
:101B9C00FB6903F48033002B12D0134B5B685B0C96
:101BAC0003F0010328333B4413F8283CBB617B69E9
:101BBC000E4A03FB02F2BB69B2FBF3F37B6204E057
:101BCC007B690B4A02FB03F37B627B6A3B6202E09C
:101BDC00064B3B6200BF3B6A18462837BD4690BC9B
:101BEC00704700BF083000080010024000127A0055
:101BFC0000093D0080B400AF024B1B681846BD467F
:101C0C0080BC70470000002080B500AFFFF7F2FFEA
:101C1C000246054B5B681B0A03F007030349CB5CC8
:101C2C0022FA03F3184680BD001002402830000849
:101C3C0080B500AFFFF7DEFF0246054B5B68DB0AA1
:101C4C0003F007030349CB5C22FA03F3184680BD6B
:101C5C00001002402830000880B485B000AF7860D6
:101C6C000A4B1B680A4AA2FB03235B0A7A6802FB35
:101C7C0003F3FB6000BFFB685A1EFA60002BF9D11E
:101C8C0000BF00BF1437BD4680BC70470000002069
:101C9C00D34D621080B582B000AF78607B68002BAA
:101CAC0001D1012341E07B6893F83D30DBB2002B7E
:101CBC0006D17B68002283F83C207868FEF724FF6D
:101CCC007B68022283F83D207B681A687B680433AA
:101CDC001946104600F06AFA7B68012283F8462008
:101CEC007B68012283F83E207B68012283F83F2029
:101CFC007B68012283F840207B68012283F8412015
:101D0C007B68012283F842207B68012283F8432000
:101D1C007B68012283F844207B68012283F84520EC
:101D2C007B68012283F83D20002318460837BD4606
:101D3C0080BD000080B485B000AF78607B6893F8FC
:101D4C003D30DBB2012B01D0012335E07B68022250
:101D5C0083F83D207B681B68DA687B681B6842F05F
:101D6C000102DA607B681B68164A934209D07B68D3
:101D7C001B68B3F1804F04D07B681B68124A9342F6
:101D8C0011D17B681B689B6803F00703FB60FB6841
:101D9C00062B10D07B681B681A687B681B6842F0A6
:101DAC0001021A6007E07B681B681A687B681B6875
:101DBC0042F001021A60002318461437BD4680BC5D
:101DCC00704700BF002C01400004004080B582B079
:101DDC0000AF78607B681B681B6903F00203022B61
:101DEC0022D17B681B68DB6803F00203022B1BD13A
:101DFC007B681B686FF002021A617B6801221A77FC
:101E0C007B681B689B6903F00303002B03D0786885
:101E1C0000F0B1F905E0786800F0A4F9786800F0FA
:101E2C00B3F97B6800221A777B681B681B6903F087
:101E3C000403042B22D17B681B68DB6803F00403CA
:101E4C00042B1BD17B681B686FF004021A617B6842
:101E5C0002221A777B681B689B6903F44073002B82
:101E6C0003D0786800F087F905E0786800F07AF91B
:101E7C00786800F089F97B6800221A777B681B6808
:101E8C001B6903F00803082B22D17B681B68DB68F5
:101E9C0003F00803082B1BD17B681B686FF008024A
:101EAC001A617B6804221A777B681B68DB6903F074
:101EBC000303002B03D0786800F05DF905E0786827
:101ECC0000F050F9786800F05FF97B6800221A770F
:101EDC007B681B681B6903F01003102B22D17B68F5
:101EEC001B68DB6803F01003102B1BD17B681B688D
:101EFC006FF010021A617B6808221A777B681B68E6
:101F0C00DB6903F44073002B03D0786800F033F9DD
:101F1C0005E0786800F026F9786800F035F97B6800
:101F2C0000221A777B681B681B6903F00103012BE5
:101F3C000ED17B681B68DB6803F00103012B07D112
:101F4C007B681B686FF001021A617868FEF74EFD22
:101F5C007B681B681B6903F08003802B0ED17B68A8
:101F6C001B68DB6803F08003802B07D17B681B6840
:101F7C006FF080021A61786800F067FA7B681B6862
:101F8C001B6903F04003402B0ED17B681B68DB6898
:101F9C0003F04003402B07D17B681B686FF04002B5
:101FAC001A61786800F0F9F87B681B681B6903F00C
:101FBC002003202B0ED17B681B68DB6803F0200309
:101FCC00202B07D17B681B686FF020021A617868A0
:101FDC0000F032FA00BF0837BD4680BD80B584B032
:101FEC0000AF786039607B6893F83C30012B01D1ED
:101FFC000223B3E07B68012283F83C207B68022239
:10200C0083F83D207B681B689B68FB60FB6823F0B2
:10201C007703FB60FB6823F47F43FB607B681B68E2
:10202C00FA689A603B681B68B3F5005F3ED0B3F565
:10203C00005F00F28780B3F5805F00F08580B3F518
:10204C00805F7FD8702B1AD0702B7BD8602B50D030
:10205C00602B77D8502B3CD0502B73D8402B58D0BA
:10206C00402B6FD8302B64D0302B6BD8202B60D00A
:10207C00202B67D8002B5CD0102B5AD062E07B68E9
:10208C0018683B6899683B685A683B68DB6800F0E5
:10209C005CF97B681B689B68FB60FB6843F077030B
:1020AC00FB607B681B68FA689A604EE07B68186876
:1020BC003B6899683B685A683B68DB6800F045F9F7
:1020CC007B681B689A687B681B6842F480429A6044
:1020DC003BE07B6818683B6859683B68DB681A46CC
:1020EC0000F0BCF87B681B685021184600F013F90F
:1020FC002BE07B6818683B6859683B68DB681A46BC
:10210C0000F0DAF87B681B686021184600F003F9D0
:10211C001BE07B6818683B6859683B68DB681A46AB
:10212C0000F09CF87B681B684021184600F0F3F81F
:10213C000BE07B681A683B681B681946104600F078
:10214C00EAF802E000BF00E000BF7B68012283F8E0
:10215C003D207B68002283F83C2000231846103772
:10216C00BD4680BD80B483B000AF786000BF0C3733
:10217C00BD4680BC704780B483B000AF786000BFB0
:10218C000C37BD4680BC704780B483B000AF78601C
:10219C0000BF0C37BD4680BC704780B483B000AF25
:1021AC00786000BF0C37BD4680BC704780B485B0EA
:1021BC0000AF786039607B681B68FB607B68254AE0
:1021CC00934207D07B68B3F1804F03D07B68224ADF
:1021DC00934208D1FB6823F07003FB603B685B689B
:1021EC00FA681343FB607B681A4A934207D07B68FA
:1021FC00B3F1804F03D07B68174A934208D1FB6838
:10220C0023F44073FB603B68DB68FA681343FB60A4
:10221C00FB6823F080023B685B691343FB607B68BF
:10222C00FA681A603B689A687B68DA623B681A68DD
:10223C007B689A627B68074A934203D13B681A69B0
:10224C007B681A637B6801225A6100BF1437BD4654
:10225C0080BC7047002C01400004004080B487B063
:10226C0000AFF860B9607A60FB681B6A7B61FB6841
:10227C001B6A23F00102FB681A62FB689B693B61D5
:10228C003B6923F0F0033B617B681B013A69134304
:10229C003B617B6923F00A037B617A69BB6813435A
:1022AC007B61FB683A699A61FB687A691A6200BFC4
:1022BC001C37BD4680BC704780B487B000AFF86057
:1022CC00B9607A60FB681B6A23F01002FB681A6223
:1022DC00FB689B697B61FB681B6A3B617B6923F430
:1022EC0070437B617B681B037A6913437B613B6999
:1022FC0023F0A0033B61BB681B013A6913433B61AC
:10230C00FB687A699A61FB683A691A6200BF1C37EC
:10231C00BD4680BC704780B485B000AF7860396032
:10232C007B689B68FB60FB6823F07003FB603A687A
:10233C00FB68134343F00703FB607B68FA689A6001
:10234C0000BF1437BD4680BC704780B487B000AF67
:10235C00F860B9607A603B60FB689B687B617B6965
:10236C0023F47F437B613B681A027B681A43BB688A
:10237C0013437A6913437B61FB687A699A6000BFE7
:10238C001C37BD4680BC704780B485B000AF786008
:10239C0039607B6893F83C30012B01D1022341E07A
:1023AC007B68012283F83C207B68022283F83D2065
:1023BC007B681B685B68FB607B681B689B68BB6009
:1023CC00FB6823F07003FB603B681B68FA681343DF
:1023DC00FB607B681B68FA685A607B681B68144A50
:1023EC00934209D07B681B68B3F1804F04D07B68A3
:1023FC001B68104A93420CD1BB6823F08003BB606E
:10240C003B685B68BA681343BB607B681B68BA683F
:10241C009A607B68012283F83D207B68002283F858
:10242C003C20002318461437BD4680BC704700BFC3
:10243C00002C01400004004080B483B000AF7860F1
:10244C0000BF0C37BD4680BC704780B483B000AF72
:10245C00786000BF0C37BD4680BC704780B582B039
:10246C0000AF78607B68002B01D101233FE07B68D3
:10247C0093F83D30DBB2002B06D17B68002283F849
:10248C003C207868FEF764FB7B68242283F83D20AF
:10249C007B681B68DA687B681B6822F40052DA6080
:1024AC00786800F025FC7B681B681A697B681B68E0
:1024BC0022F490421A617B681B685A697B681B681E
:1024CC0022F02A025A617B681B68DA687B681B68F9
:1024DC0042F40052DA607B6800221A647B68202286
:1024EC0083F83D207B68202283F83E200023184689
:1024FC000837BD4680BD80B58AB002AFF860B960C0
:10250C003B601346FB8000237B61FB6893F83D30F6
:10251C00DBB2202B7CD1BB68002B02D0FB88002BBC
:10252C0001D1012375E0FB6893F83C30012B01D1FC
:10253C0002236EE0FB68012283F83C20FB6800223A
:10254C001A64FB68212283F83D20FEF713FC7861A6
:10255C00FB68FA889A84FB68FA88DA84FB689B68C3
:10256C00B3F5805F08D1FB681B69002B04D10023F5
:10257C00FB61BB68BB6103E0BB68FB610023BB6113
:10258C00FB68002283F83C202AE03B6800937B69BF
:10259C0000228021F86800F011FA0346002B01D0CC
:1025AC00032336E0FB69002B0BD1BB691B881A4651
:1025BC00FB681B68C2F308025A60BB690233BB613B
:1025CC0007E0FB691A78FB681B685A60FB690133EA
:1025DC00FB61FB68DB8C9BB2013B9AB2FB68DA8433
:1025EC00FB68DB8C9BB2002BCFD13B6800937B69E3
:1025FC0000224021F86800F0E1F90346002B01D0DD
:10260C00032306E0FB68202283F83D20002300E032
:10261C00022318462037BD4680BD000080B58AB025
:10262C0000AF78607B681B681B687B627B681B68EB
:10263C00DB683B627B681B685B69FB610023BB61E9
:10264C0000237B617B6A03F00F03BB61BB69002B2A
:10265C000DD17B6A03F02003002B08D03B6A03F0FA
:10266C002003002B03D0786800F099FA7BE1BB695A
:10267C00002B00F0B180FB6903F00103002B05D1A6
:10268C003B6A03F49073002B00F0A6807B6A03F086
:10269C000103002B0AD03B6A03F48073002B05D096
:1026AC007B681B6C43F001027B681A647B6A03F045
:1026BC000403002B0AD0FB6903F00103002B05D0A7
:1026CC007B681B6C43F002027B681A647B6A03F024
:1026DC000203002B0AD0FB6903F00103002B05D089
:1026EC007B681B6C43F004027B681A647B6A03F002
:1026FC000803002B0FD03B6A03F02003002B04D1FE
:10270C00FB6903F00103002B05D07B681B6C43F0C5
:10271C0008027B681A647B681B6C002B00F01E811E
:10272C007B6A03F02003002B07D03B6A03F02003E5
:10273C00002B02D0786800F032FA7B681B685B696A
:10274C0003F04003002B14BF01230023DBB27B6199
:10275C007B681B6C03F00803002B02D17B69002BF8
:10276C0031D0786800F074F97B681B685B6903F002
:10277C004003002B23D07B681B685A697B681B685D
:10278C0022F040025A617B689B6B002B13D07B6854
:10279C009B6B764A5A637B689B6B1846FEF73CFC36
:1027AC000346002B16D07B689B6B5B6B7A68926B35
:1027BC00104698470EE0786800F0ECF80AE078686C
:1027CC0000F0E8F806E0786800F0E4F87B68002296
:1027DC001A64C3E000BFC1E07B681B6B012B40F0A7
:1027EC00A1807B6A03F01003002B00F09B803B6AF6
:1027FC0003F01003002B00F095800023FB607B6836
:10280C001B681B68FB607B681B685B68FB60FB6874
:10281C007B681B685B6903F04003002B4ED07B6820
:10282C009B6B1B685B683B823B8A002B00F098809B
:10283C007B689B8D3A8A9A4280F092807B683A8AB8
:10284C00DA857B689B6B9B69202B2BD07B681B6884
:10285C00DA687B681B6822F48072DA607B681B681C
:10286C005A697B681B6822F001025A617B681B68FD
:10287C005A697B681B6822F040025A617B682022EF
:10288C0083F83E207B6800221A637B681B68DA6839
:10289C007B681B6822F01002DA607B689B6B184621
:1028AC00FEF77FFB7B689A8D7B68DB8D9BB2D31A1E
:1028BC009BB21946786800F076F851E07B689A8DE7
:1028CC007B68DB8D9BB2D31A7B827B68DB8D9BB2E2
:1028DC00002B47D07B8A002B44D07B681B68DA68BE
:1028EC007B681B6822F49072DA607B681B685A69FB
:1028FC007B681B6822F001025A617B68202283F8F6
:10290C003E207B6800221A637B681B68DA687B6850
:10291C001B6822F01002DA607B8A1946786800F096
:10292C0042F81FE07B6A03F08003002B08D03B6A5F
:10293C0003F08003002B03D0786800F0C9F812E094
:10294C007B6A03F04003002B0DD03B6A03F040037D
:10295C00002B08D0786800F00AF904E000BF02E010
:10296C0000BF00E000BF2837BD4680BDB52A000877
:10297C0080B483B000AF786000BF0C37BD4680BC1C
:10298C00704780B483B000AF786000BF0C37BD4691
:10299C0080BC704780B483B000AF786000BF0C3748
:1029AC00BD4680BC704780B483B000AF78600B46E6
:1029BC007B8000BF0C37BD4680BC704780B584B0AF
:1029CC0000AFF860B9603B601346FB712CE0BB694B
:1029DC00B3F1FF3F28D0BB69002B07D0FEF7CAF933
:1029EC0002463B68D31ABA699A421DD2FB681B682F
:1029FC00DA68FB681B6822F4D072DA60FB681B682B
:102A0C005A69FB681B6822F001025A61FB6820229C
:102A1C0083F83D20FB68202283F83E20FB680022CF
:102A2C0083F83C2003230FE0FB681B681A68BB6823
:102A3C001340BA689A420CBF01230023DBB21A463A
:102A4C00FB799A42C3D0002318461037BD4680BD8F
:102A5C0080B483B000AF78607B681B68DA687B68F1
:102A6C001B6822F49072DA607B681B685A697B6879
:102A7C001B6822F001025A617B681B6B012B07D18A
:102A8C007B681B68DA687B681B6822F01002DA60CE
:102A9C007B68202283F83E207B6800221A6300BFEB
:102AAC000C37BD4680BC704780B584B000AF7860F1
:102ABC007B685B6AFB60FB680022DA85FB6800229E
:102ACC00DA84F868FFF766FF00BF1037BD4680BD9B
:102ADC0080B485B000AF78607B6893F83D30DBB292
:102AEC00212B3ED17B689B68B3F5805F14D17B684A
:102AFC001B69002B10D17B681B6AFB60FB681B8871
:102B0C001A467B681B68C2F308025A607B681B6A12
:102B1C009A1C7B681A6208E07B681B6A591C7A68ED
:102B2C0011621A787B681B685A607B68DB8C9BB2DD
:102B3C00013B9BB27A681946D184002B0FD17B687C
:102B4C001B68DA687B681B6822F08002DA607B689D
:102B5C001B68DA687B681B6842F04002DA6000236D
:102B6C0000E0022318461437BD4680BC704780B580
:102B7C0082B000AF78607B681B68DA687B681B6882
:102B8C0022F04002DA607B68202283F83D207868CE
:102B9C00FFF7EEFE002318460837BD4680BD80B512
:102BAC0086B000AF78607B6893F83E30DBB2222BA6
:102BBC0040F099807B689B68B3F5805F17D17B6888
:102BCC001B69002B13D100237B617B689B6A3B61E3
:102BDC007B681B685B689BB2C3F308039AB23B69C2
:102BEC001A807B689B6A9A1C7B689A6226E07B68D9
:102BFC009B6A7B6100233B617B689B68B3F5805FBC
:102C0C0007D07B689B68002B0AD17B681B69002B63
:102C1C0006D17B681B685B68DAB27B691A7008E0C6
:102C2C007B681B685B68DBB203F07F03DAB27B69FD
:102C3C001A707B689B6A5A1C7B689A627B68DB8D76
:102C4C009BB2013B9BB27A681946D185002B48D1C7
:102C5C007B681B68DA687B681B6822F02002DA60EC
:102C6C007B681B68DA687B681B6822F48072DA6008
:102C7C007B681B685A697B681B6822F001025A61E9
:102C8C007B68202283F83E207B681B6B012B23D1B1
:102C9C007B6800221A637B681B68DA687B681B6898
:102CAC0022F01002DA607B681B681B6803F01003CB
:102CBC00102B0AD10023FB607B681B681B68FB6030
:102CCC007B681B685B68FB60FB687B689B8D1946A7
:102CDC007868FFF768FE02E07868FFF752FE002381
:102CEC0002E0002300E0022318461837BD4680BDE1
:102CFC0080B584B000AF78607B681B681B6923F4D7
:102D0C0040517B68DA687B681B680A431A617B68F0
:102D1C009A687B681B691A437B685B691343BB60C9
:102D2C007B681B68DB6823F4B05323F00C037A68D0
:102D3C001268B9680B43D3607B681B685B6923F42A
:102D4C0040717B689A697B681B680A435A617B688F
:102D5C001B682C4A934203D1FEF76AFFF86002E02D
:102D6C00FEF752FFF860FA6813469B0013449A0072
:102D7C001A447B685B689B00B2FBF3F3224AA2FB0C
:102D8C0003235B091901FA6813469B0013449A004C
:102D9C001A447B685B689B00B2FBF3F21A4BA3FBF3
:102DAC0002035B09642000FB03F3D31A1B013233CB
:102DBC00154AA2FB03235B0903F0F0031944FA68DC
:102DCC0013469B0013449A001A447B685B689B0073
:102DDC00B2FBF3F20C4BA3FB02035B09642000FB78
:102DEC0003F3D31A1B013233074AA2FB03235B09FB
:102DFC0003F00F027B681B680A449A6000BF10370F
:102E0C00BD4680BD003801401F85EB5170B50026D2
:102E1C000C4D0D4C641BA410A64209D100F08EF889
:102E2C0000260A4D0A4C641BA410A64205D170BDA5
:102E3C0055F8043B98470136EEE755F8043B9847A4
:102E4C000136F2E7583000085830000858300008B6
:102E5C005C300008931E222B10B50C4604D90023BD
:102E6C001C460B70204610BD0A2A09D1002807DA2F
:102E7C002D230B7001214042214400F01DF8F1E795
:102E8C000021F9E7FFF7E6BF03460244934200D165
:102E9C00704703F8011BF9E7024610B51478134686
:102EAC000132002CFAD1013B11F8012B03F8012F50
:102EBC00002AF9D110BD0000F0B58BB005460B46C9
:102ECC006E461D4C04F1200C3746206861680834AE
:102EDC0003C764453E46F7D1217920683971911EAC
:102EEC00222938604FF0000104D919700B4618469E
:102EFC000BB0F0BD581E8446B5FBF2F702FB17561B
:102F0C0028366E4416F8286C0C460CF8016F2E46C9
:102F1C00B2423D4601F10101EED900225A54191971
:102F2C00A51AAA42E3DA10F8015F0E780132067096
:102F3C0001F80159F4E700BF30300008F8B500BFC4
:102F4C00F8BC08BC9E467047F8B500BFF8BC08BC7E
:042F5C009E467047D6
:102F60006D730D0A000000005461736B313A20004C
:102F70000000000000000000000000000000000051
:102F800000000000000000005461736B323A200022
:102F90000000000000000000000000000000000031
:102FA00000000000000000005461736B333A200001
:102FB0000000000000000000000000000000000011
:102FC00000000000000000005461736B343A2000E0
:102FD00000000000000000000000000000000000F1
:102FE00000000000000000004F6E652D53686F74F4
:102FF0003A20000000000000000000000000000077
:103000000000000000000000020304050607080994
:103010000A0B0C0D0E0F1010000000000000000045
:10302000010203040607080900000000010203046E
:10303000303132333435363738396162636465662E
:103040006768696A6B6C6D6E6F7071727374757698
:083050007778797A0000000096
:04305800310100083A
:04305C000D0100085A
:0C3060000024F40010000000010000003B
:0400000508000C855E
:00000001FF
